:020000040800F2
:1000000028150020B901000851470008794300086D
:1000100000000000000000000000000000000000E0
:10002000000000000000000000000000514B00082C
:10003000000000000000000053470008534B000878
:10004000CB01000800000000CB010008CB01000834
:10005000CB010008CB010008CB0100089922000861
:1000600000000000CB010008992100088921000848
:10007000CB0100083D5800084D5800080000000062
:10008000CB010008CB010008CB010008CB01000820
:10009000CB010008CB010008CB010008CB01000810
:1000A000CB010008CB010008CB0100082D6400083B
:1000B000CB0100083D64000800F002F800F050F8A1
:1000C0000CA030C8083824182D18A246671EAB466D
:1000D00054465D46AC4201D100F042F87E460F3EE8
:1000E0000FCCB6460126334200D0FB1AA246AB46DF
:1000F00033431847EC8000000C81000000230024EB
:1001000000250026103A01D378C1FBD8520700D34E
:1001100030C100D50B60704710B5642902D100F0E2
:10012000DDF810BD782902D100F00EF910BD632969
:1001300002D101F05FFA10BD732902D101F062FA19
:1001400010BD002010BD1FB501F078FD0400002097
:10015000002107F081FE401C60601FBD10B510BD7E
:1001600001F008FD1146FFF7EEFF07F0DDFB01F09F
:1001700029FD03B4FFF7F2FF03BC06F097FA000075
:1001800070B505460C46164602E00FCC0FC5103E72
:10019000102EFAD2082E02D303CC03C5083E042E3B
:1001A00007D301CC01C5361F03E021782970641CF8
:1001B0006D1C761EF9D270BD07488047074800477E
:1001C000FEE7FEE7FEE7FEE7FEE7FEE70448054937
:1001D000054A064B70470000E74B0008B9000008CD
:1001E000280F0020281500202811002028110020A9
:1001F000704700000FB4054910B503AA029801F03A
:1002000005FA10BC08BC04B01847000040010020EB
:100210000FB41CB5084B06AA7B44694600900598AC
:1002200001F0C5F904460020694601F0D3F92046E3
:100230001CBC08BC04B01847B913000070B50446D4
:1002400085690068C10601D5302600E02026C00778
:1002500007D070BD62683046A1689047206A401C94
:1002600020626D1EF6D570BD70B5044685690078B4
:10027000C00707D170BD6268A16820209047206A3E
:10028000401C20626D1EF6D570BD70B50C4605464B
:10029000012A05D02878800600D5EA69002302E00B
:1002A000012305E05B1C934202D2E05C0028F9D1F7
:1002B000A869E618C01AA861286AC01828622846EA
:1002C000FFF7BCFF04E06A682078A968641C9047C7
:1002D000B442F8D32846FFF7C7FF70BDF7B5002535
:1002E00075291068009914A611D0C046C046002890
:1002F00002DA404211A608E0009909688A0701D590
:100300000FA602E0490704D50EA6012501E0C0466C
:10031000C046009F0024243704E001F0D5F93031B5
:100320003955641C0028F8D12B46324621460098E6
:1003300001F0DFF8FEBD0000000000002D0000000D
:100340002B0000002000000070B504460D46214639
:100350001068C046C0462188090502D50F4A7A4474
:1003600002E00E4A7A440E3223460021243305E08F
:1003700006070009360F965D5E54491C0028F7D128
:1003800020780023000705D5702D03D0002901D067
:1003900002231132204601F0ACF870BDC47D00008C
:1003A000F3B50446002081B020622046E16888470A
:1003B00000287DD0252802D06268A16883E0454FDF
:1003C00000257F442046E16888472028064608DB50
:1003D000312E06D2B81920380078002801D0054304
:1003E000F0E7A80701D5042085430020E061074617
:1003F000A0612A2E0AD0304606F051F9002827D0F5
:10040000B8000019303E0090866119E00298BA00E9
:10041000121902C8916102902046E1688847012FB5
:10042000064617D1E06900281FDA202085431CE02A
:1004300000980A2180694843009980193038886102
:100440002046E1688847064606F029F90028EFD1E2
:10045000012F0AD02E2E08D12046E1688847064693
:10046000202005437F1C022FC3DBA069002803DA8C
:100470004042A06101200543E80701D010208543D8
:10048000002E24D030464138192803D80120C0025C
:1004900005432036204625603146029A1546FFF76F
:1004A0003BFE00280CD0012807D0ED1DE80800E035
:1004B0000DE0C0000830029077E72D1D029574E72B
:1004C00062683046A1689047206A401C6CE7206A49
:1004D000FEBD0000887D00000FB400B58DB010A9EE
:1004E00009900B900020C04300910A9000200C90CE
:1004F000074878440690074878446A4607900F9961
:1005000009A801F0ADF80DB008BC04B01847000010
:100510008F110000A9110000FFB51D460027FF4301
:1005200083B05C68002001909E68A96904987F1CD4
:1005300088470090296A88470028F6D10098401C17
:100540000CD0032040028443002E19DD600614D530
:1005500000982B2809D02D280FD103E00020C0439C
:1005600007B0F0BD012080020443A96904987F1CF4
:100570008847761E002E009002DD0098302803D0B8
:100580000598002825D035E00120A96940020443E0
:10059000761E04987F1C8847002E009003DD782883
:1005A00005D0582803D00598002810D022E00598DF
:1005B000002801D010281DD10120A96940028443E0
:1005C000761E04987F1C88470090102002E00820C7
:1005D00000E00A2005900DE00121059A49020C4334
:1005E0000199761E514308180190A96904987F1C4F
:1005F00088470090002E05DD0599009801F01AF853
:100600000028E9DAE96904988847A00502D40120A6
:10061000C043A5E7E00722D1600611D56005019827
:1006200000D5404229680A1D2A600968220501D5C3
:10063000087014E0220701D5088010E008600EE081
:100640002868011D29600068210502D50199017003
:1006500005E02107019901D5018000E001603846DD
:100660007EE730B505460B462A461C781078521CAA
:100670005B1C002801D0A042F7D0002C03D000283A
:1006800002D06D1CEFE7284630BDF8B5042A2CD304
:10069000830712D00B78491C0370401C521E83073D
:1006A0000BD00B78491C0370401C521E830704D0EA
:1006B0000B78491C0370401C521E8B079B0F05D002
:1006C000C91ADF002023DE1B08C90AE0FFF758FD26
:1006D000F8BD1D4608C9FD401C46B4402C4310C05F
:1006E000121F042AF5D2F308C91A521EF0D40B784F
:1006F000491C0370401C521EEAD40B78491C03703D
:10070000401C012AE4D409780170F8BD01E004C05E
:10071000091F0429FBD28B0701D50280801CC90761
:1007200000D00270704700290BD0C30702D00270BE
:10073000401C491E022904D3830702D50280801C75
:10074000891EE3E70022EEE70022DFE7002203092B
:100750008B422CD3030A8B4211D300239C464EE0DC
:1007600003460B433CD4002243088B4231D3030998
:100770008B421CD3030A8B4201D394463FE0C3094A
:100780008B4201D3CB01C01A524183098B4201D362
:100790008B01C01A524143098B4201D34B01C01A4D
:1007A000524103098B4201D30B01C01A5241C308C5
:1007B0008B4201D3CB00C01A524183088B4201D334
:1007C0008B00C01A524143088B4201D34B00C01A20
:1007D0005241411A00D201465241104670475DE035
:1007E000CA0F00D04942031000D3404253400022B8
:1007F0009C4603098B422DD3030A8B4212D3FC2261
:10080000890112BA030A8B420CD3890192118B42DF
:1008100008D3890192118B4204D389013AD09211F5
:1008200000E08909C3098B4201D3CB01C01A5241B0
:1008300083098B4201D38B01C01A524143098B4279
:1008400001D34B01C01A524103098B4201D30B0162
:10085000C01A5241C3088B4201D3CB00C01A524187
:1008600083088B4201D38B00C01A5241D9D243086E
:100870008B4201D34B00C01A5241411A00D20146AB
:10088000634652415B10104601D34042002B00D515
:100890004942704763465B1000D3404201B50020D7
:1008A000C046C04602BD704770477047F0B50C4661
:1008B000871A9C410D46861A9D4103D2C01BA14157
:1008C000D21963410D0D1F0DC94EEC1BAE435CD018
:1008D0007F057F0D0026002F51D02D05AC46A94382
:1008E000DD020123ED0A1B051D4320231B1B24D41D
:1008F0001746E740381871412F46E740CC199D4014
:100900002818314661410C0D27D161449A4013D516
:100910000023401C594152000ED1400840000122E2
:100920004B005205D34207D305204007C14201D5F1
:10093000B04900E0B0493046F0BD6B00002A00D05D
:1009400001229A181F23203C1B1B01D5002302E023
:10095000E540281871410C0DD7D001242405091950
:10096000C407CD0740084908E40F28436144002C20
:10097000D5D00024401C61419A40D0D1CDE76A0512
:10098000520DD9D1C90FC907D5E79C4D4E0000289B
:1009900001D0012400E0002434195F00002A01D0B6
:1009A000012600E00026BE19954FAC420CD8AE429D
:1009B0000AD8B44206D001256D05EC42BCD01046E1
:1009C0001946F0BD9942FCD000203946F0BDF0B583
:1009D0001FB40C460F46811A9F412546861A9D4139
:1009E00006D20125ED076F40401ABC4152187B41E9
:1009F000210D1E0D8D1BAC467D4D8D437ED07505A2
:100A00006D0D7CD00D05AE46AC431B031B0B794D21
:100A100052429D41202366469B1B14D31746F74044
:100A2000381800260090744160462F460741E419AB
:100A300000989D402818664116D4714671189A4056
:100A400025D5012320E093182A466A415200002B45
:100A500000D0521C1E23203E9B1B002B61DD354124
:100A6000EE1728186641E8D5001876415B1C9A40BD
:100A700000D3401C4B05F3181524E34010D3002B82
:100A800052D071467118D30FC01802D3491C05B05B
:100A9000F0BD0123DB079A42F9D140084000F6E798
:100AA00001225205B21801D1002853D00123CC0AEB
:100AB000DB029943891E002A08D1020C03D0020CE4
:100AC0000004103902E00246002020390023550BB3
:100AD00005D112020823550B01D152010D23550CEB
:100AE00001D112011B1DD50C01D192009B1C150DCB
:100AF00001D152005B1C2025EE1A01E02CE022E01F
:100B00000546F54015439840CA1AE10769181305D0
:100B1000C918002ABBDA032040070818C10FC9070B
:100B20000FE071466118B2E7F10740080843711001
:100B300071444A000CD001235B059A42A7D2C90F29
:100B4000C9070020A3E74905490D26D1002001E08F
:100B50000028F4D100219AE7284D6600002801D032
:100B6000012100E0002171185F00002A01D0012658
:100B700000E00026BE19224FA94210D8AE420ED87E
:100B8000B14208D001256D05E94206D01946A802F8
:100B9000414010467BE79C4201D0214677E7002088
:100BA000394674E710B50C465C4005D50124E407CE
:100BB0006340FFF70CFF10BDFFF778FE10BD30B4A7
:100BC0000C465C4004D50124E407634030BC6DE66C
:100BD00030BCFCE670B50124E40761400D465D4081
:100BE00002D4FFF763FE70BD6340FFF7F0FE70BDF7
:100BF000FF0700000000F0FF0000F07F0000E0FFB2
:100C00000000F87FF0B5F94D0C091E092C402E406C
:100C10002F468BB0A7437DD0B543FCD0002E7AD0B1
:100C2000002CFCD00D465D40ED0F2543AC1BFF258D
:100C3000AD0464190894C502440DC9022143500D46
:100C4000DC0204430120C00701430443D2020191A6
:100C5000200C110C00958C46010423468B430A910D
:100C600061460904E24D8A430991010A7D4449190C
:100C70008039097805464D4301266D18F605751B28
:100C80006943C90C640B891C4C436418B5012C1BC7
:100C9000250C2E04B4434C434D43210C691889099B
:100CA0000591009DE90701D00121C90704912C4657
:100CB00001996708CD072F434C08059DE10B4D4373
:100CC0002D0C29466646754302950D4645432E4632
:100CD000029D7D1BB44100950D465D4301942C0C93
:100CE0002F040D465543AE462D0C3D43029503940B
:100CF0007546049C2D04641B049406D2029C039D3B
:100D0000641C002675410395029401AC70CC009FD1
:100D10007D1B01E03EE162E1B441090400950791C9
:100D200001940599A4086143090C0C464443650BE2
:100D3000E7040C4666467443A646640B3C430395A1
:100D400002947446049DE4042C1B049406D2029C75
:100D5000039D641C002675410395029401AC70CC80
:100D6000009F7D1BB44101940C465C430095650FC8
:100D7000E7000C465443A646640F3C430395029497
:100D80007446049DE4002C1B049406D2029C039D2F
:100D9000641C002675410395029401AC70CC009F41
:100DA0007D1BB441AE09AF06049DC900AD092F43B8
:100DB000049DA406AD060495079D34436918079168
:100DC000059DE10B4D432D0C294666467543029562
:100DD0000D4645432E46029D7D1BB44100950D46B0
:100DE0005D4301942C0C2F040D465543AE462D0C4B
:100DF0003D43029503947546049C2D04641B0494A2
:100E000006D2029C039D641C002675410395029442
:100E100001AC70CC009F7D1BB44101948C050694FD
:100E2000079C890A611800950791019C0599A408FF
:100E30006143090C0D464543680BEF040D466446BB
:100E400065436C0B3C43049FED047D1BAC4602D212
:100E50000025641C6841009E019D371B85410846A2
:100E6000584301950C46460FC5005443600F284374
:100E70006546E4002C1B02D20025401C6E41019DFA
:100E80003F1AB5412846BD09800628438446A0097B
:100E9000BF064E020699A40676180743079D002058
:100EA00068410A99079019430020099B0090604609
:100EB000FF1913434041E20F64003A43A44604463D
:100EC000D71A8C41A04203D90120009020463A460F
:100ED000C70F941840416246D20F22436446640013
:100EE0000494009CBE466400D71AA44604460297A8
:100EF0008C417746002F01D1A04204D96046401CA6
:100F00008446029A2046C40FA64694184041049A8B
:100F10000546D20F224364466400D31A8D417146C0
:100F2000002901D1A84202D928461A46641C104360
:100F30000122002800D0164361020020079B891976
:100F400004465C410223002C02DB4918134664412D
:100F5000089DCE0A2D145D194B056705E10A2C0585
:100F60000D1908993E43C9076940002B08D09340EA
:100F700006D30022761C5141002B01D17608760061
:100F80001C4A002D43DB154241D0AA433FD03046D6
:100F90000BB0F0BD06180D464D41174C7642AC41E2
:100FA0001AD395181C465C41134A6D42A24113D3D3
:100FB000012252054C00D4420AD15C00D4420BD02D
:100FC0004B4002D592021143E2E749004908DFE7AE
:100FD0005940C90FC90718E000200849D8E705485B
:100FE00001420DD10342F7D0F2E700000000FF07F5
:100FF000EF7400000000F07F0000E0FF0000F87FC9
:10100000114859400143C01241400020C0E701236C
:10101000089A9B069A4205DC032252078918C90FD9
:10102000C907B5E7052252078918074A1143D212AA
:101030005140ADE770B515461C4602460B462846A2
:101040002146FFF7DFFD70BDFFFFFF7F30B5034690
:10105000CA02400D1043164D164C0A1502D020430B
:10106000002A06DBAA1A002A12DDD040FF2A0BDC78
:1010700030BD5205520D01D140004008AA1A07D4D4
:10108000D0404042FF2A01DD002030BD0028FCDDB9
:101090004A00002B01D0012000E00020101801229E
:1010A0005205D042F0D8C817C043604030BD0000A0
:1010B0001E04000000000080F0B5430DCA021A4370
:1010C0000446C30208152025274E002803D0AF068A
:1010D0003A43002813DB361A002E2FDD502E00D3A2
:1010E00050261146F1403446203C02D41046E040E0
:1010F00002E0AC1B1046A040F3401843F0BD400591
:10110000400D01D152005208301A17D4502800D394
:1011100050201646C6400746203F01D4FA4001E061
:101120002D1AAA40C3401A43504200230025B34160
:101130002A462D1A9A4101DB1946F0BD4A00002CBF
:1011400001D0012000E00020101801225205D042F9
:1011500002D900200146F0BDC917C8430122C94386
:10116000D2075140F0BD00003E0400001F22030CD6
:1011700002D10F22000402D0030E03D004E00020AD
:10118000014670470002083A030F01D10001121F07
:10119000830F01D18000921E002801DB4000521E07
:1011A000120551184205C012411810467047C10F70
:1011B000C90700D04042012292071143D6E701211E
:1011C0008907D3E710B50B1E01D0202301E0011ED3
:1011D0002BD00C0C01D10904103B0C0E01D10902DB
:1011E000083B0C0F01D109011B1F8C0F01D1890095
:1011F0009B1E002901DB49005B1E0446DC402143A5
:101200001C05A4182022D21A90404B05C20AC90A14
:101210001A430919830501D1430818401623984041
:1012200002D30020521C4141104610BDCA0FD20704
:1012300003D00B46002140429941024B1A43C1E7BB
:10124000004ABFE70000D041F0B58B4C0F0925469E
:1012500089B0BD437BD01D092646AE43FAD00E4669
:101260005E402740F60F3E43254071D024012142C5
:10127000FBD0FF24AD19A4042D1B039501252D05DA
:10128000DB02DB0AC9022B43C90A29431E010901FB
:10129000040F130F050121431701880B82039143AB
:1012A0002D098C46A90B1E438A039543B30B9A0361
:1012B00096433F09BA0B9403A74302962E467E43FA
:1012C0000497B6464E19D7190C4601965443059714
:1012D0007E43371B7646BF1B3601B646BE0B36191A
:1012E00000967646BC043719009C01D3641C009418
:1012F0006400002F01D001263443029E049F7543F1
:1013000066467E430496760034196E0034190094C4
:10131000029C019E1C196643751BAE4606946546E9
:101320004519059C05956C43594375460891691A02
:101330000191049E01465143A41B0491611A009C33
:101340000791E10605D061090122114302E072E034
:101350006EE06109089D00272C0A2D066918049D7E
:101360007C412A0A2D066918019D6241AC0DAD022F
:101370006D185441079A910D920255196141029AD4
:10138000644658435443069B059A5A43121A131B4A
:101390009A0E9B015B187A41010B0005C31851415D
:1013A000220A200644195A419A4200D2491C0120BF
:1013B0004002814203D315230226F64302E01423A0
:1013C0000326F6432020C51AA9401746AF40DA404D
:1013D0000A4320460399D840091473181905511877
:1013E000039A3843D2075140AC4009D001229440BF
:1013F00006D30022401C5141002C01D1400840007E
:101400001E4A934212D3012203989206904207DBB0
:101410000520400709181A480143C012414004E062
:10142000032040070818C10FC907002009B0F0BD0C
:101430000020F107FAE705180C464C4111486D42AF
:10144000A04115D394181A465A410E48644290415F
:101450000ED301204A004005824209D35A0082423D
:1014600006D35940C90F084AC90700201143DDE7D8
:1014700000200649DAE700000000FF07FE07000031
:10148000FFFFFF7F0000E0FF0000F07F0000F87F1B
:1014900070B505464800440D124B0020002C0AD0C0
:1014A000634008D09A4206DA6642B24203DD120572
:1014B0004019514170BD002C08D0002B09D0C90F34
:1014C000C907002AF6DB084A114370BDC90FC907D6
:1014D00070BD28460A03104302D00020034970BDA6
:1014E000284670BDFF0700000000F07F0000F87F75
:1014F0007047FFB504460D4681B024300090216846
:10150000880604D51022E0699143216000E00120A3
:10151000A84201DD471B00E000270498A1697A1961
:101520001018081AA0612078C00602D42046FEF7E1
:1015300085FE002608E003986268A168805D9047F8
:10154000206A401C761C206204988642F3DB2078D7
:10155000C0060AD52046FEF771FE06E06268A16863
:1015600030209047206A401C206238467F1E0028A9
:10157000F4DC07E000986268A168405D9047206A4B
:10158000401C206228466D1E0028F3DC2046FEF732
:101590006BFE2078000602D5022005B0F0BD0120C8
:1015A000FBE7000001694A1C02610878704700B53A
:1015B0008FB002910021059105490193794403916F
:1015C000114604906846FEF7EBFE0FB000BD000028
:1015D000E5FFFFFF0A681070521C0A60704710B5E3
:1015E0004369002B02D0C046C04601E0FEF74DFE25
:1015F000012010BD1278014624310A7000224A7081
:101600000122ECE711680022D243E8E7084B70B5ED
:101610000D467B44FFF7CBFF0446284600F084FAD2
:10162000002802D00020C04370BD204670BD0000DD
:10163000B76100003A2800D23038202302469A438E
:10164000412A01D310463738884201D30020C043D5
:1016500070470000026851181378016018467047FF
:1016600010B5D16005497944516105497944116249
:1016700000211161114600F08DF810BDEBFFFFFF56
:10168000110100004268002A08D001680B78491C4B
:10169000002B03D0521E06C0184670470121C160BE
:1016A000881E70474268002A0BD0C3680168002B6F
:1016B00007D183688B4204D0491E521C06C000200B
:1016C00070470020C043704701468008081A02098D
:1016D0001018020A1018020C1018C0088200121804
:1016E0005200891A01E0401C0A390A29FBD27047CE
:1016F000F8B5224C4E00069DA6420AD8A64201D15A
:10170000002806D15E00A64203D8A6420AD1002ACC
:1017100008D00D24240425422CD02946002000F0B6
:1017200007FAF8BD0C461C430CD4994202D0EFF3E3
:101730000080F8BD904202D0EFF30080F8BDEFF3D7
:101740000080F8BD09242407E5008B4206D0EFF3A2
:101750000080A043591A06D2284304E0101A05D38A
:10176000EFF30080A04380F30088F8BDEFF3008022
:10177000A043F1E7009500F0F3F9F8BD0000E0FFA9
:1017800010B5044600F016FA0068005DC007C00FEF
:1017900010BD0000F3B50C468FB000200C90012066
:1017A00000260E9008460C300390626903980121D0
:1017B0009047051E2ED0252D2DD0216A8847002860
:1017C00018D06269039801219047216A8847002850
:1017D000F7D16269411E0398904700E0761CA16929
:1017E0000F988847216A88470028F7D1E1690F9848
:1017F0008847DAE7A1690F988847A842074601D1D0
:10180000761CD2E7E1690F9888477F1C02D10C98BB
:10181000002877D075E16269039800273D46394674
:1018200090472A280CD1626903980121904701252D
:1018300006E00A214F433F18303FEBD41020054308
:101840006269039801219047014630390A2903D281
:10185000B1498F42DEDCECE7E90600D4AF4F6C28DB
:101860000AD04C2810D0682824D06A282ED074289A
:101870000CD07A280AD00DE06269039801219047C4
:101880006C2823D004211CE02020054362690398C2
:1018900001219047A760652865604FD026DC582855
:1018A00039D01ADC452849D012DC252834D041280B
:1018B000B0D143E06269039801219047682802D0C3
:1018C00008210D43E6E70120C002DEE70220DCE745
:1018D000462833D047289DD130E05B2870D061285E
:1018E0002CD063286CD0642894D161E06F284FD04D
:1018F00009DC662822D0672820D0692826D06E28E7
:1019000088D12EE0F9E070284DD073286FD075286B
:101910004ED078280DD154E0A1690F98884725282A
:10192000054600D16CE7E1690F9888476D1C00D12E
:101930006DE7E6E00A224CE00A2252E0012023464D
:101940006A460F99C043C046C046CFE040212846B2
:10195000234608436060A80701D5002239E0002231
:101960003FE0E80700D020E72068011D2160006803
:10197000290501D5067018E7290701D5068014E767
:10198000A90703D5F117066041600EE706600CE772
:1019900040212846234608436060A80701D5082255
:1019A00017E008221DE05E4928460840606016E006
:1019B00040212846234608436060A807BCD5B9E704
:1019C00015E04021284608436060A80707D5234654
:1019D000102201200F99C043C046C04686E0102265
:1019E000234601200F99C043FEF796FD7EE00021BB
:1019F00063280B460191009102910D9102D05B2862
:101A000008D03CE02079C00601D40120A06001206C
:101A1000009034E0E06801210D90626903989047DE
:101A20005E2807D101200190E06801210D906269D4
:101A3000039890472169002906D10B4604AA8F001C
:101A4000491C0829D351FADB00285AD02169002902
:101A500027D00298401C02906269039801219047A8
:101A60005D28F1D10198002808D0002004AB810046
:101A7000401C5A58D24308285A50F8DB04AB20695E
:101A8000002820791DD0400726D5029A00980D9B8A
:101A900000922246029001200F99C043C046C046E2
:101AA00024E0C117C90E09184A114909930004AA74
:101AB0009A184901411A13680120884003431360B2
:101AC000CAE74007224617480F9902D5C046C046CC
:101AD0000CE0C046C04609E00298224600990D9BE2
:101AE000009002910F480F99C046C04600280ADABC
:101AF000401C06D10E98002803D00020C04311B02E
:101B0000F0BD0C98FBE7E90702D10C99491C0C9138
:101B1000361800200E9048E6CCCCCC0CFFFFFF7F9F
:101B2000F1F7FFFFFEFFFFFFC0688021084070470C
:101B3000C80212D54803400F002804D0C803C04390
:101B4000012188407047EFF3008000010009032164
:101B50000907084380F300887047002070470000A1
:101B600010B500200249029A00F034F810BD0000C0
:101B70000000F87F754600F05DF8AE460500694646
:101B80005346C008C000854618B020B5FEF71EFBBE
:101B900060BC00274908B6460026C0C5C0C5C0C500
:101BA000C0C5C0C5C0C5C0C5C0C5403D49008D4603
:101BB0007047000010B500F041F8001D10BD00BFD7
:101BC0009962000010B50446C046C0462046FEF7A4
:101BD000D0FA10BD10B50C461107090F092904D021
:101BE0000A290AD008290CD104E011460820FFF781
:101BF0009FFF06E0510606D501E0510601D5012000
:101C0000C007214610BDD10607D501010909CC083E
:101C10004907000E0006044309E0410F200249076E
:101C2000000A0143200E00061D22D141014308464F
:101C3000E7E7000000487047C40E002000487047E6
:101C4000E40E0020024670B50A4392072AD11E4DC9
:101C5000EE0104C808C9541B9443344017D0D0B2D5
:101C6000D9B2401A2106014310D190B299B2401A5C
:101C7000210401430AD110021902000A090A401A7C
:101C80002102014302D1100E190E401A70BD9A4272
:101C9000DFD010BA19BA884201D9012070BD0020E6
:101CA000C04370BD02780B78401C491C002A09D043
:101CB0009A4207D102780B78401C491C002A01D0B7
:101CC0009A42EFD0D01A70BD0101010170B58C1895
:101CD0000578401C6B075B0F01D10378401C2A116B
:101CE00006D10278401C03E00678401C0E70491CA7
:101CF0005B1EF9D12B0705D40023521E0DD40B70A7
:101D0000491CFAE70378401CCB1A921C03E01D78AB
:101D10000D70491C5B1C521EF9D5A142D8D300207E
:101D200070BD000070B50446E1A1FEF79AFC0028E2
:101D300044D0207A01463039092902D94138052892
:101D40007ED8607A01463039092902D94138052800
:101D5000F6D8A07A01463039092902D94138052838
:101D6000EED8E07A01463039092902D941380528F0
:101D7000E6D8207B2C2863D1607B014630390929C5
:101D800002D941380528DBD8A07B01463039092922
:101D900002D941380528D3D8E07B014630390929DA
:101DA00002D941380528CBD8207C01463039092991
:101DB00002D941380528C3D82D2070BDBFA12046C7
:101DC000FEF74FFC002811D000210820225C1346AA
:101DD000413B052B02D9303A092A00D8491C401C46
:101DE0003728F3DD3029C6D12A2070BDB6A12046A0
:101DF000FEF737FC002829D0E07A2D28BBD1207AC5
:101E000039289DD830281BD3607A392898D83028B3
:101E1000F9D3A07A392893D83028F4D3207B3928F5
:101E20008ED83028EFD3607B392889D83028EAD380
:101E3000A07B392884D83028E5D3E07B392800E01E
:101E40002BE185D83028DED32B2070BDA1A1204600
:101E5000FEF707FC002801D0132070BD9FA120468B
:101E6000FEF7FFFB002801D0142070BD9EA1204684
:101E7000FEF7F7FB002804D0207A312809D030285B
:101E800035D09CA12046FEF7ECFB002831D0232062
:101E900070BD002002468100411809194B7A2C2B95
:101EA00020D18B7A1D46303D092D02D9413B052BAF
:101EB00018D8CB7A1D46303D092D02D9413B052B60
:101EC00010D80B7B1D46303D092D02D9413B052B17
:101ED00008D8497B0B46303B092B02D941390529EB
:101EE00000D8521C401C0528D5DB052A86D12C20A1
:101EF00070BD83A12046FEF7B4FB002801D041202D
:101F000070BD81A12046FEF7ACFB002801D029203E
:101F100070BD80A12046FEF7A4FB002801D042201E
:101F200070BD7EA12046FEF79CFB002801D010204A
:101F300070BD7DA12046FEF794FB002801D0202033
:101F400070BD7CA12046FEF78CFB002801D0272025
:101F500070BD7BA12046FEF784FB002801D02E2017
:101F600070BD7AA12046FEF77CFB002801D0192025
:101F700070BD79A12046FEF774FB002801D0152022
:101F800070BD78A12046FEF76CFB002801D0172019
:101F900070BD77A12046FEF764FB002842D0207A6E
:101FA00001463039092902D9413805287DD8607A9F
:101FB00001463039092902D94138052875D8A07A57
:101FC00001463039092902D9413805286DD8E07A0F
:101FD00001463039092902D94138052865D8207BC6
:101FE00001463039092902D9413805285DD8607B7E
:101FF00001463038092803D908464138052854D805
:10200000A07B01463039092902D9413805284CD82E
:10201000E07B01463039092902D94138052844D8E6
:10202000252070BD55A12046FEF71BFB00283CD0A3
:10203000207A462839D1607A322801D0352834D127
:10204000A07A2D2831D1E17A412901D054292CD10F
:10205000207B0246303A092A02D94138052824D883
:10206000607B0246303A092A02D9413805281CD83B
:10207000A07B0246303A092A02D94138052814D8F3
:10208000E07B0246303A092A02D9113A052A0CD8D7
:10209000412903D0542904D005E006E0342804D2B5
:1020A00001E0302801D0242070BD802070BD0000E8
:1020B00041542B41434D443D0000000041542B54FA
:1020C0004350533D0000000041542B535045443DC4
:1020D0000000000041542B494E463F0041542B560E
:1020E0004241543F0000000041542B54574C543D92
:1020F0000000000041542B424155443D00000000C7
:1021000041542B535441520041542B544350453DAC
:102110000000000041542B525345540041542B42BF
:102120004545503F0000000041542B424545503D7D
:102130000000000041542B554348473D000000007B
:1021400041542B4C4941503D0000000041542B5557
:102150004348473F0000000041542B424155443F53
:102160000000000041542B4741494E3F0000000051
:1021700041542B4741494E3D0000000041542B5132
:102180005345543D0000000010B5024800F08AF9A4
:1021900010BD0000840C002010B5024800F082F948
:1021A00010BD0000280C002010B50446006C094941
:1021B0008008800040186064207814210838FEF7F9
:1021C000C5FA04498031A164C106C90E01208840C6
:1021D000E06410BD000802400179084B8906890EB1
:1021E0008A00D2180265054A4432491E42658A07B0
:1021F000920F01219140816570470000FC08024068
:10220000F0B5846CC56C6560046D002C02D0446D23
:10221000856D65600B4C6568066C1C273E40012788
:10222000B7403D436560046863608368102B0368B2
:1022300003D099600068C260F0BD9A600068C16018
:10224000F0BD00000000024010B507A11148FDF7E5
:10225000DFFF044601460F4804F014F921460D48FB
:1022600004F006F910BD00003E3E20506C6561731D
:102270006520636F6E666967757265207468652096
:102280006D6F64756C652E2E2E3A41542B5153455B
:10229000540D0A002807002010B5202000F0A0FAF5
:1022A00010BD00004109074A890089180968C20663
:1022B000D20E01209040014201D001207047002041
:1022C0007047000000E100E072B6FEE703494A698A
:1022D00001231B04184302434A6170470020024057
:1022E000044A5069044BC9001840014303480143A4
:1022F000516170470020024007E0FFFF020001002B
:1023000030B505494C6901252C434C610260BFF38F
:102310006F8F436030BD00000020024030B50B4C91
:10232000002362690125AD042A436261EFF3108244
:1023300072B620C95B1C20C0DBB2402BF9D32069E8
:10234000C003FCD482F3108830BD0000002002409E
:10235000F8B5054600F020FB471901263604114C5C
:1023600003E000F019FBB84214D220693042F8D1E2
:1023700021690D4801400D48206103D00C4841609F
:102380000120F8BD00F008FB451905E000F004FB52
:10239000A84201D30320F8BD20694003F6D40020F1
:1023A000F8BD000000200240FA830000FB8300001B
:1023B000700E0020F0B5002808D0014620314A797F
:1023C000022A05D00422C263002008710120F0BD5A
:1023D000026813680E24A3431360426C1468FF2341
:1023E00001339C431460026814686408640014603C
:1023F0000C4A5568066C1C24264001242746B74029
:102400003D435560826CC56C5560026D002A05D055
:1024100015689D431560826D406D42604C710020CF
:102420000871F0BD00000240F8B5002402462032D9
:102430005179022903D00421C16301242DE00168F0
:102440000B680E25AB430B6001680B685B085B00F3
:102450000B60416C0B68FF250135AB430B601049E5
:102460004D68066C1C231E4001231F46B7403D43A8
:102470004D60816CC56C4D60016D002906D00E6801
:102480001D02AE430E60416D856D4D60537100219C
:102490001171816B002900D088472046F8BD0000EB
:1024A00000000240F0B42C490C6802681368056C07
:1024B0001C273D400426AE40264211D05E070FD5B2
:1024C00013689B0603D4146804239C4314604B6870
:1024D000046C04223C40A24013434B60016B1CE09F
:1024E0000227AF40064627402036002F19D09F070D
:1024F00017D513689B0605D413680A24A3431360F9
:10250000012272714B68046C1C2214400222A2400A
:1025100013434B6000213171C16A00291AD0F0BC0D
:1025200008470827AF40274214D01B0712D513686D
:102530000E24A34313604B68046C1C221440012238
:102540001546A5402B434B60C26372710021317167
:10255000416BE2E7F0BC70470000024070B5040038
:102560003FD02548256814212818FEF7EFF8800091
:102570002064022026462036707128681F490840D2
:102580002860E168A0686269084321691143084333
:10259000A1690843E1690843216A084321680A6880
:1025A000104308602046FFF7FFFD0121A068890362
:1025B0000025884200D165602079616C8006800E1C
:1025C0000860A06CE16C41606068401E03280AD876
:1025D0002046FFF701FE206D0560606DA16D416032
:1025E00004E0012070BD25656565A565E5630120F2
:1025F00070713571002070BDF8FFFDBF0F80FFFFC7
:10260000F8B504468C4620300179002501290BD00D
:102610000126067141790027012907D08021E16355
:10262000077101252846F8BD0220F8BD022141713D
:10263000E763206801684908490001606146204657
:10264000FFF7DEFD206B00282068016801D00E2214
:1026500005E0042291430160206801680A221143C9
:102660000160606C0168CA03074902D502680A4329
:102670000260206D002802D002680A4302602068D0
:10268000016831430160CDE70001000070B50446E8
:1026900000F082F90546601C02D004480078241836
:1026A00000F07AF9401BA042FAD370BD440100202B
:1026B000F8B51F4E044630780F4601280AD0012095
:1026C0003070002070607D20C000FFF741FE0028C0
:1026D00002D029E00220F8BD042161602268042AAA
:1026E00003D0491F3960A56814E00846FFF7EEFDE6
:1026F0007D20C000FFF72CFE16E029466068FFF73A
:10270000EFFD7D20C000FFF723FE002801D03D60D3
:1027100005E06D1CE268A1688918A942EDD8054959
:102720004A6902239A434A6100213170F8BD0000D2
:10273000700E002000200240054901204A69C307AD
:102740001A434A614969002900DA002070470000F5
:1027500000200240F0B51FB4144C06462078154600
:1027600001280AD00120207000277D20C00067606A
:10277000FFF7EEFD002803D010E0022005B0F0BD09
:10278000012E0DD029460198FFF7C8FD7D20C0001D
:10279000FFF7DEFD06494A69B2434A612770EDE75B
:1027A0002A46039B0198FFF7ABFDEFE7700E002070
:1027B00000200240064900204A69002A07DA054A3B
:1027C0008A60054A8A604969002900DA0120704759
:1027D0000020024023016745AB89EFCD7047000020
:1027E00070B5084D0446E868204203D0EC602046EE
:1027F00000F00AF82869204203D02C612046FFF738
:10280000EDFF70BD0018024010B5012804D020284B
:1028100001D105F095F910BD01490120486010BDB6
:1028200058010020F0B5002303249AE02A46012530
:102830009D402A407ED00E79B607B60F012E01D0FA
:10284000022E16D186682746B4465E00B646B740CB
:102850006646BE43B446CF687646B74066463743C1
:1028600087604668AE430D79ED06ED0F9D40354318
:1028700045600D79ED43AD0708D0C5685F00264679
:10288000BE40B5438E68BE402E43C6600D79AD078D
:10289000AD0F022D0ED1DD08AD002D18AC462D6A0E
:1028A0005E07F60E0F27B740BD430F69B7402F43B1
:1028B00065462F6205685F002646BE40B5430E7927
:1028C000B607B60FBE402E4306604D68AD03AD0F90
:1028D00046D09E08264DB6007519AC462D6E9E0753
:1028E000F60E0F27B740BD4305273F07B84201D179
:1028F00000270FE01F4FB84201D101270AE01E4F09
:10290000B84201D1022705E01C4FB84201D103278C
:1029100000E00527B7402F43154D664637662D6802
:102920004E689543F60200D51543114F3D607D6812
:10293000954300E014E04E68B60200D515437D6073
:102940000B4D80356E684F689643BF0300D5164324
:102950006E602E684F689643FF0300D516432E60C5
:102960005B1C0A681546DA4000D05FE7F0BD000046
:10297000001802400004005000080050000C0050F5
:102980000069084000D001207047002A01D0816111
:1029900070478162704700000148806870470000FE
:1029A0004401002070B504000FD02168154808606C
:1029B00021681548086003CC41602068083C216804
:1029C0008860FFF7E9FF05460CE0012070BDFFF7C6
:1029D000E3FF401B312805D92068C068400701D0BB
:1029E000032070BD2068C0684007F0D120680269EC
:1029F000E1688A4201D0016101E0044901600020E0
:102A000070BD0000CCCC000055550000AAAA000003
:102A1000006802490160002070470000AAAA000077
:102A2000024881680278891881607047440100205B
:102A300010B5084800240168821511430160012087
:102A400000F00AF8002801D0012401E000F028F885
:102A5000204610BD0020024070B50F4E0024317892
:102A60000546002915D07D20C000FDF76FFE014608
:102A70000A480068FDF76AFE00F062FE002808D1EF
:102A8000042D06D200222946401E00F02FF8756062
:102A900000E00124204670BD4401002050010020C8
:102AA00008B50B480168012211430160006810401D
:102AB000009007484038C26B01040A43C263C06BF0
:102AC000084000900320400200F030FE08BD0000E6
:102AD00040100240002805DBC106C90E01208840D5
:102AE000014908607047000000E100E010B503F004
:102AF000E1FC10BD10B50F4C216803225202914336
:102B000001432160C11FFF39FA390ED10A4806215D
:102B1000006848430949FDF719FE401C02E00028FF
:102B200005D0401E61694905F9D4002010BD03207D
:102B300010BD0000007000405001002040420F0016
:102B4000F8B5044600680026524D800358D5514818
:102B500000274038C06BC00009D44E484038C26BD3
:102B600001040A43C263C06B0840012700904A4831
:102B70000168821511430160FFF70EFF009005E028
:102B8000FFF70AFF0099401A022825D8424800683A
:102B9000C005F5D5E8690321090208400FD0A169F5
:102BA00081420CD0E86903210902EA6988430121C6
:102BB00009040A43EA61EA698A43EA61E861C007F5
:102BC0000FD0FFF7E9FE009008E0FFF7E5FE00995F
:102BD000411A3248814201D9032609E0E869800799
:102BE000F3D5E869032109028843A1690843E86134
:102BF000002F05D027484038C16B02049143C163C0
:102C00002078C00705D068696168800880000843A3
:102C100068612078800705D568690C218843A16820
:102C2000084368612078800606D568690321090396
:102C30008843E168084368612088400411D56869C9
:102C40006169800080080843686101216069890723
:102C5000884206D10F484038C1680122120411434E
:102C6000C1602088000512D5686903218903884363
:102C7000216908436861012120698903884206D1DE
:102C800004484038C168012212041143C160304633
:102C9000F8BD0000401002400070004088130000A2
:102CA000F8B50F46060043D04D4D28684007400F49
:102CB000B84213D22868C008C00038432860FFF724
:102CC0006BFE044605E0FFF767FE011B45488142A5
:102CD00061D828684007400FB842F4D13068424CB0
:102CE00081070DD5400704D5A068072109030843D3
:102CF000A060A0680F2109028843B1680843A06062
:102D00003078C00732D0706801280AD002280BD072
:102D100000280FD03449403103280ED0C9698907F3
:102D200004E02168890301E021688901002906DBAC
:102D30000120F8BD21684905F8E7096AEFE7A168B5
:102D4000C908C9000143A160FFF726FE009006E014
:102D5000FFF722FE0099411A224881421BD8A06841
:102D6000382108407168C9008842F1D128684007BD
:102D7000400FB84217D91A480168C908C900394339
:102D80000160FFF709FE054607E0FFF705FE411B5E
:102D90001448814201D90320F8BD1148006840075A
:102DA000400FB842F1D13078400706D5A06807211E
:102DB00009038843F1680843A06000F031F8A16876
:102DC0003C2289091140094A515CC906C90EC84014
:102DD0000749086007480068FFF73EFEF8BD00009D
:102DE00000200240881300000010024018800008F4
:102DF0005001002048010020064807490068896802
:102E0000064A4904490F8900515CC906C90EC840E9
:102E10007047000050010020001002405880000858
:102E200010B5204CA068204A8006400F16D0A0683C
:102E30008006410F501001290FD0A1688906490F63
:102E4000022912D0A0688006400F042823D0A06871
:102E50008006400F032821D0002010BD20680121EA
:102E60008004400F8140104612E0E1688B07E16862
:102E70009B0F4906490F491C032B00D01046FDF754
:102E800065FCE1684904490E4843E168490F491C63
:102E9000FDF75CFC10BD0120C00310BD7D200002C9
:102EA00010BD0000001002400024F400F8B504003A
:102EB0007ED020783827C007E94D002846D0A86882
:102EC000E96838408907890F102802D008280BD0FC
:102ED00001E0032908D001206268000482420AD17F
:102EE00029680143296015E0286880032ED56068B1
:102EF0000028DDD02AE0052301211B0489049A4221
:102F00002A6802D10A432A60EAE782432A602868D5
:102F100088432860606800280CD0FFF73DFD064616
:102F200004E0FFF739FD801B642873D8286880030C
:102F3000F7D50BE0FFF730FD064604E0FFF72CFD68
:102F4000801B6428F1D828688003F7D42078800794
:102F500069D5A868E96838408A070721920FC90235
:102F6000102802D0002813D001E0022A10D0E06817
:102F7000002846D0286888432169084328602868CB
:102F8000FF21013108432860FFF706FD06462CE0CB
:102F90002A68520502D5E268002A89D06A687F2330
:102FA0001B029A4363691B021A436A60002800E00F
:102FB0008DE00ED12868884321690843286028687D
:102FC00001218004400F8140A648FDF7BFFBA649C0
:102FD0000860A6480068FFF73FFD002877D122E08F
:102FE000FFF7DAFC801B02289FD828684005F7D538
:102FF00068687F21090288436169090208436860A3
:1030000011E02968FF20013081432960FFF7C4FCEB
:10301000064605E098E0FFF7BFFC801B022884D835
:1030200028684005F7D42078914E00072ED5A8686F
:103030008006400F03280AD0A0690028306A16D005
:10304000012108433062FFF7A7FC07460BE0306A16
:1030500080071BD5A06900289FD017E0FFF79CFCD4
:10306000C01B022870D8306A8007F7D50EE04008F0
:1030700040003062FFF790FC074604E0FFF78CFC4D
:10308000C01B022860D8306A8007F7D42078400738
:103090006CD5A86800278006400F042818D0E86B7C
:1030A000C00008D4E96B012000070143E963E96B24
:1030B0000140012700916F480168C90519D40168D2
:1030C000821511430160FFF767FC00900DE083E07B
:1030D000F06980074AD5A06800287DD046E0FFF758
:1030E0005BFC0099401A02282ED862480068C0058F
:1030F000F5D5A168012910D004200529F16911D066
:1031000049084900F161F1698143F161A068002833
:1031100016D0FFF741FC00900EE0F0690121084352
:10312000F061F3E70143F161F7E7FFF735FC009940
:10313000411A5148814265D8F0698007F5D50EE003
:10314000FFF72AFC009007E05CE0FFF725FC009900
:10315000411A4948814255D8F0698007F5D4002FBB
:1031600004D0E96B012000078143E963E06900288E
:1031700073D0A9688906490F02294DD00126360669
:103180000228286805D0B0432860FFF705FC0446F4
:103190003AE0B0432860FFF7FFFB074604E0FFF783
:1031A000FBFBC01B02282DD828688001F7D4616A78
:1031B000206AA26A0843E16A120211430843216BA4
:1031C0000843E9682D4A11400843E8602868304305
:1031D0002860E868012100E03DE009070843E86055
:1031E000FFF7DAFB044604E0FFF7D6FB001B0228DA
:1031F00008D828688001F7D52FE0FFF7CDFB001B2A
:10320000022801D90320F8BD28688001F5D4E868B8
:103210001B490840E86020E00128F4D0E868226AF1
:103220008107890F914216D17021626A0140914253
:1032300011D17F21A26A09020140120291420AD1F2
:103240001F214904E26A0140914204D1400F216BE1
:103250004007884201D00120F8BD0020F8BD0000E1
:10326000001002400024F40050010020480100201A
:103270004010024000700040881300008C80C11F85
:10328000FCFFFEEF4030407F7047F8B504000CD0E3
:10329000606A002500280AD025616561264640360F
:1032A000A562707F002808D00BE00120F8BD61689E
:1032B000C81FFD38F2D0E561F0E73577204600F011
:1032C0005BF802227277206801684023994301600D
:1032D0000723E1681B02994201D9002001E0012087
:1032E00000030F273F02B94202D0994200D0A562E5
:1032F000FF236168053319402127A368BF023B40C3
:10330000194323691340227D1943D207D20F114379
:103310000123A2695B021A401143E26938231A4073
:103320001143226A80231A401143A26A9B011A406A
:10333000114322681160A1690422090C1140626ADC
:1033400010231A401143626B08231A4011430F23C4
:10335000E2681B021A40114301221203104001438C
:10336000206841602068C16952109143C16125669F
:10337000012070770020F8BD10B586B004461421F6
:103380006846FDF7E1F91249206888421DD11148CD
:10339000026881140A4302600068084005900D48E5
:1033A0004038416B012211434163406B00211040C2
:1033B0000590E0200090022001900390029104917A
:1033C000052069460007FFF72DFA06B010BD000082
:1033D0000030014040100240FFB50546044640352C
:1033E000287F002781B01646012809D001202877C0
:1033F000FFF7D2FA0090687F012804D0022795E0F9
:10340000022005B0F0BD0298002872D0002E70D0C6
:1034100003206877002020660299A163A687E687CB
:103420002064A880E8802065E0640122A068D203BF
:103430004021904208D1206802688A4302602068D7
:1034400002680B021A43026020680268520602D426
:1034500002680A4302600721E06809028842606846
:1034600026D9002801D0012E1ED1A06B216800882A
:10347000C86006E020688168890709D5A16B0988C2
:10348000C160A06B801CA063E08F401EE0870BE052
:10349000FFF782FA0099411A0498814202D3401C36
:1034A00002D039E0002837D0E08F0028E2D126E0B2
:1034B000002801D0012E1FD1A06B2168007808736D
:1034C00006E020688168890709D5A16B0978017336
:1034D000A06B401CA063E08F401EE0870CE0FFF76C
:1034E0005BFA0099411A0498814203D3401C03D02F
:1034F00012E01AE000280FD0E08F0028E1D120462A
:10350000009A049901F0EEF9002801D020202066ED
:10351000A068002802D005E0032707E02068C16802
:1035200080680090206E002800D001270120687775
:1035300000202877384664E7FFB5044683B00120B1
:1035400001900020254640350090287F0C9F1E46A4
:1035500001280FD001202877FFF71EFA0290687F1C
:10356000616801280DD0CA1FFD3A08D1A168002961
:1035700005D102E0022007B0F0BD042801D00220EE
:10358000D1E00498002820D0059800281DD0002EF6
:103590001BD0687F042801D00520687700202066B2
:1035A00005992164EE80AE800499A163E687A68721
:1035B000E064206507210120E268090200038A42D5
:1035C0002268536803D9834302E00120ABE0034340
:1035D000536020680268520603D4026840231A43ED
:1035E0000260E0688842606844D9002801D0012E5A
:1035F00039D1A06B21680088C860A06B801CA063D3
:10360000E08F401EE0872EE020688168890710D592
:10361000E18F00290DD0019901290AD1A16B0988F8
:10362000C160A06B801CA063E08F401EE08700207B
:10363000019020688168C9070DD0E98800290AD067
:10364000C068216C0880206C801C2064E888401EC3
:10365000E88001200190FFF79FF90299401AB842D3
:1036600001D3781C5ED1E08F0028CDD1E8880028F6
:10367000CAD146E0002801D0012E3CD1A06B2168C0
:1036800000780873A06B401CA063E08F401EE087A9
:1036900031E020688168890710D5E18F00290DD0BD
:1036A000019901290AD1A16B09780173A06B401C13
:1036B000A063E08F401EE0870020019020688168B1
:1036C000C9070DD0E98800290AD0007B216C087059
:1036D000206C401C2064E888401EE8800120019096
:1036E000FFF75AF90299401AB84202D3781C02D067
:1036F00018E0002F16D0E08F0028CAD1E8880028F3
:10370000C7D139462046029A01F0ECF8002803D0D0
:103710000120009020202066012068770020287773
:10372000009828E703200090F6E7000003490A68A4
:1037300003235B029A4302430A6070470000014082
:10374000094910B5401E884201D9012010BD074C1F
:1037500060610321081F02F0ADFE0020A061072078
:103760002061002010BD0000FFFFFF0000E000E02E
:103770007047704770470000F0B5034620331A7F4A
:10378000012A27D001221A7702225A770468626838
:10379000A568114FBC4205D116460F22120596436B
:1037A0004A6832437026B2430E681643666000686A
:1037B000B84205D0094A904202D0094A904204D149
:1037C0008022896895432943816001205877002031
:1037D0001877F0BD0220F0BD002C0140000400402D
:1037E0000040014070B5040005D025462035687FB3
:1037F000002802D006E0012070BD00202877204676
:1038000000F016F802206877211D206802F026F8E3
:10381000012240342272AA77EA7722706270A27085
:10382000E27022716271A271E2716A77002070BD4C
:1038300008B500680D49884217D10D480268C114C7
:103840000A430260006800220840009002210D2017
:10385000FFF74CF90D20FFF73DF9002202210E2061
:10386000FFF744F90E20FFF735F908BD002C0140A1
:1038700040100240014620314A7F012A01D0012038
:10388000704702224A770168CB6801221343CB605C
:1038900000680B49884205D00A49884202D00A498B
:1038A000884207D18168094B1940062905D0DB1FE2
:1038B000994202D001681143016000207047000066
:1038C000002C0140000400400040014007000100BE
:1038D000F8B5054604462035287F0026012817D074
:1038E00001272F7702206877226890682F4B1840B5
:1038F000FF231B02984390600868502838D00EDCE4
:1039000020284FD006DC00284CD010281ED149E0DA
:103910000220F8BD302845D0402817D13AE0602871
:103920002ED0702818D001221203801A0FD0904296
:103930000CD1CB684A688968206801F0D3FF206801
:103940008168012292031143816000E001266F77B4
:10395000002028773046F8BDCB684A68896820681F
:1039600001F0C0FF21688868772210438860EEE785
:10397000CA684968206801F0CBFF5021206806E042
:10398000CA684968206801F0D4FF6021206801F00E
:10399000B5FFDCE7CA684968206801F0B9FF40213B
:1039A0002068F4E7226801461046F0E788FFCEFF62
:1039B0007047000070B50446006801690025C943DE
:1039C0008907002915DBC168C943890711D4E91E9D
:1039D000016101202077206880698007204602D09D
:1039E000FFF7E6FF04E000F0A7F8204600F0A5F896
:1039F000257720680169C943490717D4C168C943BD
:103A0000490713D40421C9430161022020772068AB
:103A100080698005800F204602D0FFF7C9FF04E0CF
:103A200000F08AF8204600F088F8257720680169C0
:103A3000C943090716D4C168C943090712D408212C
:103A4000C9430161042020772068C06980072046AF
:103A500002D0FFF7ADFF04E000F06EF8204600F062
:103A60006CF8257720680169C943C90617D4C16875
:103A7000C943C90613D41021C94301610820207726
:103A80002068C0698005800F204602D0FFF790FFB4
:103A900004E000F051F8204600F04FF82577206848
:103AA0000169C943C90708D1C168C943C90704D11D
:103AB000891E0161204600F041F820680169C94370
:103AC000090609D4C168C943090605D48021C94340
:103AD00001612046FFF74DFE20680169C943C90511
:103AE00008D4C168C943090604D4124901612046BB
:103AF000FFF73EFE20680169C943490609D4C16841
:103B0000C943490605D44021C9430161204600F05C
:103B1000A1F820680169C943890609D4C168C9436D
:103B2000890605D42021C94301612046FFF722FE02
:103B300070BD0000FFFEFFFF70477047F8B53D49BC
:103B4000884270D13C48002384883C4A012C02D032
:103B5000022C21D03BE03A480A2100689568414395
:103B6000A94200DC93605178012902D0002904D0D9
:103B700004E0D168491CD16000E0D360642148436F
:103B8000D168884201DAD36017E05068401C506069
:103B90009068401C90601AE011782A48012903D0EF
:103BA00000290CD0116902E01169491C1161264DF0
:103BB000A94205DB01218170136102F0ABFC1361A6
:103BC0005188012918D0002901D0491E518051691E
:103BD000E126491CFF257D27B6001C480135FF0062
:103BE0005161022C10D08C1B642C1DD80122402165
:103BF000FEF7CBFE012212E08578052DE5D1457850
:103C0000C57006258570E0E78C1B642CEED9B9429F
:103C100000DD536100224021FEF7B7FE0022294655
:103C20000B48FEF7B2FEF8BDB94200DD5361002239
:103C30004021F6E72C090020180600202001002072
:103C4000180000208003002050C300000004005032
:103C500000080050704710B5014680310A78012AEB
:103C600015D001220A7024224A6002681368146881
:103C700064086400146001225207934300224266E4
:103C800000680360202048600A70104610BD0220C2
:103C900010BD7047704770B50446054680342078E3
:103CA00001281AD00120207024206060286806684E
:103CB00002685208520002602868826807235B0687
:103CC0009A430A438260284601F046FE286806604F
:103CD000202060600020207070BD022070BD70B593
:103CE0000446054680342078012819D00120207030
:103CF000242060602868066802685208520002604A
:103D000028688268D200D2080A438260284601F0FF
:103D100023FE28680660202060600020207070BDAF
:103D2000022070BD7047704770470000F8B5036807
:103D30000446D96918689A68B24D0E462E40254649
:103D40008035002E75D0B04EB04F16400740374337
:103D50006ED0CF0706D0C70504D501271F62EB68D8
:103D60003B43EB608B0708D5D30706D027680223B7
:103D70003B62EB6804273B43EB604B0708D5D30756
:103D800006D0276804233B62EB6802273B43EB60C5
:103D90000B0709D520230340334305D026680823A9
:103DA0003362EE681E43EE600B0509D5430107D56B
:103DB00001232668DB023362EB6820263343EB6085
:103DC000EB68002B42D089060AD520210840C9059E
:103DD0000A40104304D0216F002901D020468847B3
:103DE000E86821688968490602D42821084232D04F
:103DF000204601F0C7FE21688868400627D5EFF30A
:103E00001080012282F310888B68402293438B60DC
:103E100080F31088E06F002819D07D498163E06F3E
:103E2000FEF702FB002811D0E06F816B0DE000E08F
:103E300017E08E0615D5012720263F0706401740BC
:103E40003E430ED0216FB1E020468847F8BD2046A2
:103E5000FFF76AFFF8BD2046FFF766FF0020E86025
:103E6000F8BDE66E012E7CD1CE067AD5C60678D591
:103E700010221A62236898682646400640360028B9
:103E800047DAE16F086840680004000CE8D0B78B9F
:103E90008742E5D9F08308680068800634D4EFF3E0
:103EA0001080012181F3108819681701B943196046
:103EB00080F31088EFF31080012181F310882168CE
:103EC0008B685B085B008B6080F31088EFF31080D9
:103ED000012181F3108821688B684027BB438B60E8
:103EE00080F310882020A8600020E066EFF31080A7
:103EF000012181F3108821680B6893430B6080F3E4
:103F00001088E06FFEF756FAB08BF18B401A81B241
:103F100033E0B08BF18B401A81B2F08B00289FD038
:103F200000299DD0EFF31080012686F310881E68CB
:103F3000FF272137BE431E6080F31088EFF3108007
:103F4000012383F3108823689E682F4FFF433E4070
:103F50009E6080F310882020A8600020E066206723
:103F600000E00EE0EFF31080012383F31088236854
:103F70001D6895431D6080F310882046FFF789FE79
:103F8000F8BDCE0208D5560206D5012000051862FC
:103F90002046FFF7C8FEF8BD0E060BD50127802688
:103FA000FF0506403A40164304D0616F002900D057
:103FB0004AE7F8BD4A0614D5420612D52046EFF36B
:103FC0001081012282F310881C68402294431C60F7
:103FD00081F31088202169600021416700F0CAF94F
:103FE000F8BD0A0205D5420003D52046FFF79AFE28
:103FF000F8BDC901FCD50028FADA2046FFF74AFED1
:10400000F8BD00000F0800000100001020010004AE
:10401000CD5A000870B5040005D025468035686883
:10402000002802D006E0012070BD00202870204644
:1040300000F026F8242068602068016849084900DB
:104040000160204602F026F80128EDD0A06A002881
:1040500002D0204601F0A2FC206841680922D20269
:1040600091434160206881682A22914381602068E1
:104070000168012211430160204601F0F5FC70BD8A
:10408000F0B587B0064614216846FCF75DFB3F4B50
:10409000316800243E4802221027994237D13C491A
:1040A00040310D6853031D430D60096819400591A7
:1040B000436B01210B434363406B6B460840059003
:1040C0000320400215C304910520039469460007AC
:1040D000FEF7A8FB304D2F482860AF603320EC601E
:1040E00068606C61AC61EC6180202C6228612846BC
:1040F000FEF734FA002801D0FEF7E6F8B567002293
:1041000002211B20AE62FEF7F1FC1B2039E0234B9D
:10411000994238D1C36B012189040B43C363C36B3C
:104120000B400593436B08210B434363406B0840EE
:10413000059003200002694615C10394694618489A
:104140000494FEF76FFB1348134D28305C3528604C
:10415000AF603720EC6068606C61AC61EC6180201E
:104160002C6228612846FEF7F9F9002801D0FEF7F5
:10417000ABF8B567002202211D20AE62FEF7B6FC47
:104180001D20FEF7A7FC07B0F0BD0000003801407D
:10419000001002401C000240280C00200048004093
:1041A000000C005070B5034680339C68202C29D148
:1041B00000290BD0002A09D0012584682D03AC42C8
:1041C00006D10469002C03D1CC0701D0012070BDB9
:1041D0001C78012C16D001241C700023C3660468CF
:1041E00063681B020BD5EFF31083012585F310885C
:1041F00025680126B6063543256083F3108802F052
:1042000011F870BD022070BD70B50124254BE40388
:10421000016800226510244899421DD141880B0491
:1042200013D403461B784E0403D50A2B0CD121432B
:1042300010E00D2B0DD08C04A40C1C4D491C89B230
:104240002B554180C72900D94280012216491848C0
:1042500021E029434180F8E7164B99421DD181881E
:104260000B0414D4144B4E041B7803D50A2B0DD128
:10427000214314E00D2B11D08C040C4DA40CC83537
:10428000491C89B22B558180C72900D982800848F2
:10429000012209499030FFF785FF70BD29438180D5
:1042A000F5E70000003801403801002078090020BF
:1042B000080B00200048004039010020F8B50546F1
:1042C00004468035686820284CD100290BD0002A8C
:1042D00009D00123A0681B03984206D12069002859
:1042E00003D1C80701D00120F8BD2878012839D0B2
:1042F000012028702046403021658282C28200263B
:10430000EE6021206860A06F002819D01649C162B4
:10431000A16F16480863A16F15484863A06F134644
:1043200086632768216D3A462832A06FFEF768F948
:10433000002805D01020E8602E7020206860D2E7A9
:104340002168402008622E70EFF31080012181F374
:10435000108821688A6880231A438A6080F3108855
:104360000020F8BD0220F8BD2F5B00087B5B000831
:10437000E15A000870477047FEE7000010B5024898
:10438000FEF746FB10BD0000B808002030B5017AEA
:10439000827A6423303959435218417A0A235943A7
:1043A00021231B01C91A51188AB20E497D250A82A0
:1043B000037BED00303BC47B6B43E418437B6425F7
:1043C0006B43807B0A2568431818074B2018C018D8
:1043D00080B2488205498A63C86305490120486064
:1043E00030BD00001806002030EBFFFF3006002033
:1043F000180100201CB500210091017A194C4629B2
:1044000001D103212181427A0221352A02D0322AA8
:1044100003D003E00522E28000E0E180C27A412A75
:1044200002D0542A01D001E00121A18001460422DA
:104430000C316846FCF729F901AA0BA16846FCF784
:104440004BF80198094A81B2E18209482280026052
:10445000A2888260E288C260228902610548016008
:104460001CBD00001806002025780000AAAA000044
:10447000300600201807002008B50C48816B012287
:1044800011438163806B02211040009000220A20BA
:10449000FEF72CFB0A20FEF71DFB002202210B2059
:1044A000FEF724FB0B20FEF715FB08BD00100240B1
:1044B000F0B587B014216846FCF746F93748416BE0
:1044C000012421434163416B21400591416B022648
:1044D00031434163416B31400591426B08210A43EE
:1044E0004263426B0A400592426B04210A434263D5
:1044F000406B002208400590052001210007FEF7CF
:1045000044FA0520012210210007FEF73EFA00229E
:1045100041212348FEF739FA270200223946214873
:10452000FEF733FA112000256A4671C2052069465C
:104530000007FEF777F901AA009470C2694618488F
:10454000FEF770F90520019569460007009702956E
:10455000FEF768F9019469461248009702950394A2
:10456000FEF760F9202000901120000401906946B8
:1045700002960B48FEF756F94020694631C169465C
:1045800007480394FEF74EF9002201210720FEF7A9
:10459000ADFA0720FEF79EFA07B0F0BD001002400A
:1045A000000400500008005010B50848064901609A
:1045B000062141600649C1608160FEF7F3F90028D9
:1045C00001D0FDF781FE10BD00300040B80800208A
:1045D000FF0F000010B511480F490160FF210531A0
:1045E000416000210722816012020161C260012244
:1045F000416152028261016220224162C261816294
:1046000007220163C2624163FEF73FFE002801D02A
:10461000FDF75AFE10BD000000300140C808002020
:1046200010B588B0002405940694184803940494A7
:10463000009401941449029401603F218460416018
:104640000461446163218461C160FFF7CBF80028F5
:1046500001D0FDF739FE01200003039003A90B48A8
:10466000FFF736F9002801D0FDF72EFE00940194E3
:10467000694606480294FFF77FF8002801D0FDF74D
:1046800023FE08B010BD0000002C01402C090020C2
:1046900010B51B4819490160E12149024160002120
:1046A0008160C16001618161C16101620C2241626E
:1046B00042618162FFF7AEFC002801D0FDF704FEE5
:1046C00000210F48FFF70BFB002801D0FDF7FCFD90
:1046D00000210B48FFF7DFFA002801D0FDF7F4FDB9
:1046E0000748FFF7B8FA002801D0FDF7EDFD0122D9
:1046F00004490348FFF756FD10BD00000038014093
:10470000080B00203801002010B50F480D4901604A
:10471000E121C902416000218160C16001618161C4
:10472000C16101620C22416242618162FFF772FC49
:10473000002801D0FDF7C8FD012204490248FFF717
:1047400031FD10BD00480040980B002039010020C9
:10475000FEE7704710B50449044800F065F80449C5
:10476000044800F009F810BDE00C00207809002092
:10477000A80D0020400A002070B5064629480D46C5
:104780000188090444D5002101803046FDF7CAFAAA
:104790000446400613D52946204601F0ADFF2846C1
:1047A00001F05CFE64213046FBF7CCFF422C04D1C3
:1047B00001F086FFC820FDF769FF01F09DFEE006CD
:1047C0000CD52946204601F0AFFF132C02D0284615
:1047D00001F044FE64213046FBF7B4FFA00617D574
:1047E00032462946204601F0D5FF2D2C09D02B2C2E
:1047F00028460ED001F032FE64213046FBF7A2FFBE
:10480000D6E7284601F02AFE64213046FBF79AFFDE
:1048100070BD01F023FE64213046FBF793FF01F0E9
:104820004FFF70BD3C01002070B505462B480E4679
:104830000188090448D5002101802846FDF772FA55
:104840000446400614D53146204601F055FF314656
:1048500023A0FBF7CFFC64212846FBF773FF422C13
:1048600004D101F02DFFC820FDF710FF01F044FE38
:10487000E0060DD53146204601F056FF132C03D03B
:10488000314617A0FBF7B6FC64212846FBF75AFF18
:10489000A00619D52A463146204601F07BFF2D2C73
:1048A0000AD02B2C31460EA00FD0FBF7A3FC6421BD
:1048B0002846FBF747FFD4E7314609A0FBF79AFCEF
:1048C00064212846FBF73EFF70BDFBF793FC642193
:1048D0002846FBF737FF01F0F3FE70BD3A010020D8
:1048E00025730000F8B50F460B46154600920321CC
:1048F00004460022C90200F01BF82026002812D12D
:104900003B46002280212046009500F07DF80028DB
:1049100009D103213B46002249022046009500F0C0
:1049200007F8002803D0206E304320660320F8BD2E
:10493000FFB585B00E460446002069460E9D174619
:104940000871FEF729F8411B0898451AFEF724F86C
:104950000390206823210C3002902A4800684843C5
:10496000000D684346E003204002864206D1002F36
:1049700004D1029801786846017100790898401CBA
:1049800039D0FEF709F80399401AA84205D2002D44
:1049900003D0009800282BD02BE020684168E0224B
:1049A000914341606068C11FFD390CD10121A068AD
:1049B000C903884202D04911884204D120680168A5
:1049C0004022914301600120A16A4003814207D146
:1049D00021680A6882430A6021680A6802430A6003
:1049E00001204034607700202077032009B0F0BD1B
:1049F0000025401E0090206880683040B842B2D147
:104A00000020F3E750010020FFB581B01E460446A8
:104A10000A9DFDF7C1FF401B351AFDF7BDFF074694
:104A2000264800684001000D684339E0701C38D00A
:104A3000FDF7B2FFC01BA84205D2002D03D000989D
:104A400000282BD02BE020684168E0229143416090
:104A50006068C11FFD390CD10121A068C9038842DB
:104A600002D04911884204D1206801684022914354
:104A700001600120A16A4003814207D121680A68D0
:104A800082430A6021680A6802430A6001204034B8
:104A9000607700202077032005B0F0BD0025401E80
:104AA0000090206881680298884305D0002103980F
:104AB0008142BBD10020EFE70121F8E7500100203F
:104AC00030B5002303E010C89D004C515B1C93429D
:104AD000F9D330BDF0B5044685B000200490012024
:104AE000C0061F4616460D4684422BD3A00729D187
:104AF000FDF760FEA019144E022130601F20C00691
:104B00002018C00A00910290039704A96846FDF797
:104B1000CFFD0E4F3846FDF71BFC00280AD00CE0F5
:104B20000CCD21460120083DFDF714FE002804D1DC
:104B30000834083530688442F2D33846FDF708FC63
:104B4000FDF7FAFD05B0F0BD1401002050C30000D0
:104B5000704710B5FDF764FF10BD70B598B03421F3
:104B60006846FBF7F1FD00240D940E940F941C2170
:104B700011A81094FBF7E8FD01204002FDF7BAFFF1
:104B80000A200090FF20013003904020059008206B
:104B900001260A900225069680030B9007950003D4
:104BA00004940C90089509946846FEF77FF9002854
:104BB00001D072B6FEE707200D900F9402210E95EA
:104BC00010940DA8FEF76CF8002801D072B6FEE72D
:104BD00011A811961294FDF7B3FF002801D072B608
:104BE000FEE718B070BD7047F0B53B4C93B00F2096
:104BF000607020210AA8FBF7A7FDE0780D2868D196
:104C00003648006B002861DD00243548A10040587B
:104C1000002102F035FE054631480E46E70010300F
:104C2000C11903C902F02CFE2A463346FBF7BAFF2E
:104C30000022D243FCF72CFC0AAAD21903C2641C3E
:104C4000042CE2DB11991098FCF700FA00900F9900
:104C50000E98FCF7FBF901900D990C98FCF7F6F90A
:104C60000746204A204B0B990A98FCF7EDFA1F4A99
:104C70001F4BFBF7A4FFFCF7E9F9184C034621464C
:104C8000643104256557CA888888266B089605AE66
:104C900025C64A880D880098029011480097039510
:104CA000049214A13030226CFBF7B2FA05062D0EE7
:104CB0000CD0207A2946401C20720948303001F07F
:104CC000D7FB07482946303001F0DCFB02490020C1
:104CD000887013B0F0BD00008003002000000020A9
:104CE00080010020AC1C5A643BDFED3FC520B07250
:104CF00068F55040742578202564202564202564BB
:104D0000202564203A20253034782025303478203E
:104D1000253034782025303478203A202564202529
:104D2000640D0A00F8B5354902460C465E3C204643
:104D3000264661300027324D4036002A19D0012A1C
:104D400016D167702A70B27FEA638A1C0B785370A1
:104D50004978917002F025FBB08B02F0B0FBE77050
:104D60000220A0702046603007702649012008709C
:104D7000F8BD6770244A2F70D28A2A641F4A0B78C4
:104D8000921C53704978917002F00BFBB08B02F0CB
:104D900096FB1E4805210288012A01D9A170F8BDA1
:104DA000002AFCD16A78012A09D0022A20D0002AE0
:104DB000F5D1174AC82312885A43028015E02A6B9E
:104DC000002AECD16A6BAB78002A05D00A2B07D2F7
:104DD00002805B1CAB7008E00A2B01D2002A04D1D0
:104DE0007D22D20002806A63AF706078E070D5E700
:104DF0006078E0700320A070F8BD0000DE030020A2
:104E000000000020210100201806002022010020BF
:104E1000C8000020F8B53C4C092025466070803D54
:104E20006A79002A05D00021712A04D0374A11700E
:104E30006971E07064E00021344A334E11700A2336
:104E40000A46A03E771820377F79491CBA18D2B29B
:104E50009942F7DBD1432E4B00221A60491CEA7BB2
:104E6000C9B28A4249D1AA78697812028918294AB6
:104E70001268914241D102F0B3FC274E716130615A
:104E8000214831463439753802F0FEFD1E4831465E
:104E90003839793802F0F8FD3046803804228256DD
:104EA000736931691D4FD600BE190AC62E79EB7899
:104EB00036029B19560007466437BB53836F436421
:104EC000521C016551B2017104290FDA0E4860309D
:104ED000407A401A1249484380B202F011FB002088
:104EE00002F01DFA6078E070092004E002F030F86A
:104EF0006078E0700320A07000E0E070002068712E
:104F0000024801210170F8BD80030020200100202B
:104F100030010020C8000020800000206001002037
:104F200010270000F0B5654C8BB00B212646617050
:104F3000803E7279002A05D00020832A04D0604A7E
:104F400010707071E170B4E05D490020087002F0EB
:104F500047FC5C4D69620021286208460A22574BD3
:104F6000A03B1B1820335B79401C5918C9B29042F2
:104F7000F5DBC843401CF17BC0B281427ED1B178E1
:104F80007078090241184D484030C08B8142F5D1FC
:104F90004C494A483039793802F076FD494947484A
:104FA0002C39753802F070FD4648464D006A803D48
:104FB000A865019043488768EF64286D0890696C84
:104FC000401AFCF7FCF805910690A86C381AFCF71B
:104FD000F6F8049001980791C01BFCF7F0F80391D4
:104FE0000746696D0898081AFCF7E9F801910090E6
:104FF0003A46039B05990698FBF7D4FD079B049A54
:10500000FBF7D0FD019B009AFBF7CCFD09910890BE
:10501000019B009A07990498FCF716F900910490F7
:105020003A46039B05990698FCF70EF9009B049AF3
:10503000FBF7C5FD099B089AFBF7E4FDFCF73CF87C
:105040000746019102F01CFC696728671B48B1798B
:1050500060308172C21FF93A2962917F6172491CE6
:1050600091771649233213780B7352784A7341783B
:10507000A1738078E0731348436A00E015E0026A88
:105080000E48183002F00DFD0C483A461430019BD2
:1050900002F007FD288C60747020207401F058FF26
:1050A0006078E0700320A07001E06078E07000207C
:1050B00070710348012101700BB0F0BD8003002026
:1050C0002101002080000020F8B53E4C0720274633
:1050D0006070803F7979002905D00026812904D0AD
:1050E00039490E7067E0E07067E03748067002F0FB
:1050F00077FB364A03C21546883D0021A86408465E
:105100000622304BA03B1B1820335B79401C5918FA
:10511000C9B29042F5DBC843401CF97AC0B2814263
:1051200048D12A4927483C39793802F0ADFCAE63B2
:10513000F9783A798C4610020818E8612449286405
:10514000898A002936D1002834DD2969884231DC7A
:10515000A86300282CDD1B49B87960318872CB1F09
:10516000F93B2862987F6072401C98771548634627
:10517000037342734878A0738878E07313480CC8AF
:1051800008464E3802F08DFC288C60747120207423
:10519000A87A81004018C01C68620120A8620D48EE
:1051A000066001F0D5FE6078E0700520A07003E095
:1051B000002801D16078E0707E71034901200870F9
:1051C000F8BD0000800300202101002080000020A5
:1051D0001806002024010020F0B57C4D8DB00D2272
:1051E0002E466A70803E7079002809D00021702810
:1051F00008D0EA7071717648012101700DB0F0BDE0
:10520000EA70F8E7724800230170184610246F4FC7
:10521000A03F3F1820377F79401CFB18DBB2A0422B
:10522000F5DBD8436B4B00211960401C717DC0B287
:1052300081427DD1B17870780902401866490968C9
:105240008842F6D1624900200870644C02206070E8
:1052500002F0C6FA274680377963386300200B9046
:105260005A4821465831733802F00EFC57482146FF
:105270005C316F3802F008FC54480BA9773802F013
:1052800003FC0B980C90216B554A89005050B8696B
:1052900060650090396B092021662056203AC000D5
:1052A00080188038826F226500980792081AFBF7F1
:1052B00086FF05910690E16DA06D0190081AFBF73D
:1052C0007EFF04900F460198E16C401AFBF777FFD0
:1052D0000290079A00980191801AFBF770FF0791DE
:1052E0000090019B029A05990698FBF75BFC3B46F0
:1052F000049AFBF757FC079B009AFBF753FC0991B4
:1053000008903946079B009A0498FBF79DFF0746D3
:105310000391019B029A05990698FBF795FF3A467F
:10532000039BFBF74CFC099B089AFBF76BFC00E026
:1053300048E0FBF7C1FE0746019100210C9802F0FE
:105340009FFA059104903846019902F099FA059B5D
:10535000049AFBF727FC0022D243FCF799F8616717
:105360002067226B1E48D3001030C01801990760D7
:105370004160042A01DA521C2263206B012807D104
:10538000327AF17912028918164A89B21180616362
:105390000E496031497A091A002904DD6878E870FD
:1053A0000320A8700FE00F27042803D004216156C2
:1053B000884208D10020E06201F0CAFD6878E870F8
:1053C000AF7000E0EA700020707114E780030020E5
:1053D0002001002030010020C80000200000002033
:1053E000800100202201002010B5134C0222E17838
:1053F000002815D001281AD162700A291AD0002974
:1054000015D10E4841690E4841430E48814200DCE7
:1054100088B202F075F8002001F081FF072005E056
:105420006270082904D00C2901D10D20A07010BD94
:105430000920FBE70B20F9E7800300200000002093
:1054400098080000FFFF0000F8B5284C0A206070A3
:10545000162702F0D8F97D239B040022C018514181
:105460000906050A0D43284601F094FF680840002C
:105470001F4E030E0202002592196B411D49E019CF
:10548000CB608A6002F00DFB0A21A576002023186C
:10549000A27E1B7C401CD218A2768842F7DBD0B2D9
:1054A000C043401CA0760022E11D384602F0FEF801
:1054B00001220021384602F00BF90F4802F020F8D3
:1054C000142002F003F8032002F074F800060B49E0
:1054D000000E887105D001F03BFD6078E070A5708A
:1054E000F8BD6078E0700220A070F8BD8003002055
:1054F0003440000080000020FFFF0000000000207A
:10550000F8B53D4C0C206070162000908320264694
:1055100020746036B07A60743848394DC08AA07300
:10552000000AE07309202856294642006431895A4E
:105530002173090A61733349C00008180CC820465A
:10554000123002F0AEFA092004212856695688422A
:1055500001DA401C687202F056F97D239B04002298
:10556000C01851410906070A0F43384601F012FFDF
:1055700078084000030E0102234A00278A182048B9
:105580007B418030C36182611B48163002F089FA8A
:105590000A21A77600202318A27E1B7C401CD2186B
:1055A000A2768842F7DBD0B2C043401CA07600222E
:1055B000E11D009802F07AF801220021009802F023
:1055C00087F8707A1149484380B201F099FF14209E
:1055D00001F07CFF032001F0EDFF0006000E687172
:1055E00005D001F0B5FC6078E070A770F8BD607878
:1055F000E0700220A070F8BD800300201806002093
:105600000000002060010020344000003011000044
:10561000F8B53F4C1220009008206070032025460A
:10562000E0706035E87A6072401CE8723948C08AE0
:10563000A073000AE073FF2020736073A87A60747F
:10564000401CA872812020740420687202F0DBF8EC
:105650007D239B040022C01851410906060A0E430F
:10566000304601F097FE70084000030E01022A4AFE
:1056700000268A18294F7341BA672046FB6712300B
:105680007A6402F00EFA0621A67500202318A27D86
:105690001B7C401CD218A2758842F7DBD0B2C043F5
:1056A000401CA0750022E11D009801F0FFFF0122BF
:1056B0000021009802F00CF8687A1949484380B23A
:1056C00001F01EFF142001F001FF032001F072FF22
:1056D0000006000E787105D001F03AFC6078E070A9
:1056E000A670F8BD01207870F86A3E63401CF8622D
:1056F0000A483E717E7208216430FBF723F82021AE
:105700000848FBF721F86078E0700220A070F8BD2F
:105710008003002018060020344000000000002014
:105720001027000060010020F8B5304C08206070A0
:105730001C202F4E00907169B06B00254843B16961
:1057400041180A2041432B480068081A14380028E1
:1057500005DD814203DDA0740012E07401E0A57450
:10576000E57402F050F87D239B040022C0185141DB
:105770000906070A0F43384601F00CFE780840007E
:10578000030E1D4A00028218002119484B41803047
:10579000C362826215481C3002F083F9134910225B
:1057A00020310D70002027180B783F7C401CDB193E
:1057B0000B709042F7DBD8B2C043401C0870002247
:1057C000E11D009801F072FF01220021009801F014
:1057D0007FFF012001F0EEFE0006000EB07101D047
:1057E00001F0B6FB6078E070A570F8BD8003002082
:1057F0000000002028010020344000000E4903234F
:10580000CA78002808D0012811D14B70062A11D07F
:105810000B2A0CD10E2009E04B70002A08D0062A72
:1058200006D00D2A01D0092A01D10C2088707047BA
:105830000820FBE70A20F9E78003002010B50248A2
:10584000FEF7B8F810BD00002C09002010B5024882
:10585000FEF7B0F810BD00002C090020F0B502687A
:105860001A4B1B4C984201D0A04203D17025AA4389
:105870004D682A43174D184E184F98420AD0A0423F
:1058800008D0174CA04205D0A84203D0B04201D0A6
:10589000B84205D11446032212029443CA68224337
:1058A0008024A2434C69224302608A68C2620A686B
:1058B0008262984205D0A84203D0B04201D0B842DB
:1058C00001D10969016301214161F0BD002C014052
:1058D00000040040004001400044014000480140F5
:1058E0000020004030B58468FF252D021B021343C1
:1058F000AC430B432343836030BD00008268034BFD
:105900001A400A4307210A43826070478FFFCFFF86
:1059100030B5036A046A6408640004628469F0258F
:10592000AC43120122430A24A3430B438261036266
:1059300030BD30B5036A1024A34303628469036A4F
:105940000F252D031203AC432243A024A3430901D6
:1059500019438261016230BDF8B50446416E40349E
:10596000002915D000688168806809014D0F0A4E32
:10597000400F3746315C083F385CC000FAF7E6FE5E
:105980006085785D715DC000FAF7E0FE2085F8BDA6
:1059900001206085FAE700001080000810B5018D35
:1059A000C90707D001684A6801235B049A43C36AA8
:1059B0001A434A60018D890707D501684A680123A7
:1059C0001B049A43036B1A434A60018D490707D5AC
:1059D00001684A6801239B049A43436B1A434A6057
:1059E000018D090707D501684A680123DB039A4343
:1059F000836B1A434A60018DC90607D50268916816
:105A000001231B039943C36B19439160018D8906E0
:105A100007D501688A6801235B039A43036C1A4324
:105A20008A60018D490612D503685A68012109056B
:105A3000446C8A4322435A60426C8A4207D102680E
:105A4000516803235B059943836C19435160018DB1
:105A5000090607D501684A680123DB04C06C9A4334
:105A600002434A6010BD0000FEB5054600268035A1
:105A70000446EE60FCF790FF019020680068124F2A
:105A8000000709D501210097002249052046019B06
:105A900000F062FC00280DD12068006840070BD59B
:105AA00001210097002289052046019B00F054FC4B
:105AB000002801D00320FEBD20206860A860E666B3
:105AC0002E700020FEBD0000FFFFFF0110B5806AB0
:105AD000002201464031CA83CA82FEF725F910BD73
